{
  "contractName": "Batch",
  "abi": [
    {
      "inputs": [
        {
          "internalType": "address",
          "name": "admin",
          "type": "address"
        }
      ],
      "stateMutability": "nonpayable",
      "type": "constructor"
    },
    {
      "inputs": [
        {
          "internalType": "address[]",
          "name": "recipient",
          "type": "address[]"
        },
        {
          "internalType": "string[]",
          "name": "token",
          "type": "string[]"
        },
        {
          "internalType": "uint256[]",
          "name": "amount",
          "type": "uint256[]"
        }
      ],
      "name": "batch",
      "outputs": [],
      "stateMutability": "nonpayable",
      "type": "function"
    },
    {
      "inputs": [
        {
          "internalType": "string",
          "name": "name",
          "type": "string"
        },
        {
          "internalType": "contract IERC20",
          "name": "token",
          "type": "address"
        }
      ],
      "name": "addToken",
      "outputs": [],
      "stateMutability": "nonpayable",
      "type": "function"
    },
    {
      "inputs": [
        {
          "internalType": "uint256",
          "name": "amount",
          "type": "uint256"
        },
        {
          "internalType": "string",
          "name": "token",
          "type": "string"
        }
      ],
      "name": "withdraw",
      "outputs": [],
      "stateMutability": "nonpayable",
      "type": "function"
    },
    {
      "inputs": [
        {
          "internalType": "address",
          "name": "newAdmin",
          "type": "address"
        }
      ],
      "name": "addAdmin",
      "outputs": [],
      "stateMutability": "nonpayable",
      "type": "function"
    },
    {
      "inputs": [],
      "name": "blockAddable",
      "outputs": [],
      "stateMutability": "nonpayable",
      "type": "function"
    }
  ],
  "bytecode": "0x608060405234801561001057600080fd5b506040516109fe3803806109fe83398101604081905261002f91610067565b6001600160a01b03166000908152600160208190526040909120805460ff199081168317909155600280549091169091179055610095565b600060208284031215610078578081fd5b81516001600160a01b038116811461008e578182fd5b9392505050565b61095a806100a46000396000f3fe608060405234801561001057600080fd5b50600436106100575760003560e01c8063051354491461005c578063422c3676146100665780637048027514610079578063b0b22c2c1461008c578063dc048cf21461009f575b600080fd5b6100646100b2565b005b61006461007436600461066f565b6100fc565b61006461008736600461064c565b6102e2565b61006461009a366004610775565b6103a3565b6100646100ad3660046107c5565b61041c565b3360009081526001602081905260409091205460ff161515146100f05760405162461bcd60e51b81526004016100e790610843565b60405180910390fd5b6002805460ff19169055565b3360009081526001602081905260409091205460ff161515146101315760405162461bcd60e51b81526004016100e790610843565b81518351148015610143575080518351145b61018f5760405162461bcd60e51b815260206004820152601760248201527f5472616e736665723a20496e76616c696420696e70757400000000000000000060448201526064016100e7565b60005b83518110156102dc5760008382815181106101bd57634e487b7160e01b600052603260045260246000fd5b60200260200101516040516101d2919061080a565b9081526040519081900360200190205484516001600160a01b039091169063a9059cbb9086908490811061021657634e487b7160e01b600052603260045260246000fd5b602002602001015184848151811061023e57634e487b7160e01b600052603260045260246000fd5b60200260200101516040518363ffffffff1660e01b81526004016102779291906001600160a01b03929092168252602082015260400190565b602060405180830381600087803b15801561029157600080fd5b505af11580156102a5573d6000803e3d6000fd5b505050506040513d601f19601f820116820180604052508101906102c99190610755565b50806102d4816108cf565b915050610192565b50505050565b3360009081526001602081905260409091205460ff161515146103175760405162461bcd60e51b81526004016100e790610843565b60025460ff1661037c5760405162461bcd60e51b815260206004820152602a60248201527f5472616e736665723a206e6f7420616c6c6f77656420746f206164642061646d60448201526934b734b9ba3930ba37b960b11b60648201526084016100e7565b6001600160a01b03166000908152600160208190526040909120805460ff19169091179055565b3360009081526001602081905260409091205460ff161515146103d85760405162461bcd60e51b81526004016100e790610843565b806000836040516103e9919061080a565b90815260405190819003602001902080546001600160a01b03929092166001600160a01b03199092169190911790555050565b3360009081526001602081905260409091205460ff161515146104515760405162461bcd60e51b81526004016100e790610843565b600081604051610461919061080a565b9081526040519081900360200181205463a9059cbb60e01b8252336004830152602482018490526001600160a01b03169063a9059cbb90604401602060405180830381600087803b1580156104b557600080fd5b505af11580156104c9573d6000803e3d6000fd5b505050506040513d601f19601f820116820180604052508101906104ed9190610755565b505050565b600082601f830112610502578081fd5b81356020610517610512836108ab565b61087a565b80838252828201915082860187848660051b8901011115610536578586fd5b855b8581101561057757813567ffffffffffffffff811115610556578788fd5b6105648a87838c01016105e1565b8552509284019290840190600101610538565b5090979650505050505050565b600082601f830112610594578081fd5b813560206105a4610512836108ab565b80838252828201915082860187848660051b89010111156105c3578586fd5b855b85811015610577578135845292840192908401906001016105c5565b600082601f8301126105f1578081fd5b813567ffffffffffffffff81111561060b5761060b6108f6565b61061e601f8201601f191660200161087a565b818152846020838601011115610632578283fd5b816020850160208301379081016020019190915292915050565b60006020828403121561065d578081fd5b81356106688161090c565b9392505050565b600080600060608486031215610683578182fd5b833567ffffffffffffffff8082111561069a578384fd5b818601915086601f8301126106ad578384fd5b813560206106bd610512836108ab565b8083825282820191508286018b848660051b89010111156106dc578889fd5b8896505b848710156107075780356106f38161090c565b8352600196909601959183019183016106e0565b509750508701359250508082111561071d578384fd5b610729878388016104f2565b9350604086013591508082111561073e578283fd5b5061074b86828701610584565b9150509250925092565b600060208284031215610766578081fd5b81518015158114610668578182fd5b60008060408385031215610787578182fd5b823567ffffffffffffffff81111561079d578283fd5b6107a9858286016105e1565b92505060208301356107ba8161090c565b809150509250929050565b600080604083850312156107d7578182fd5b82359150602083013567ffffffffffffffff8111156107f4578182fd5b610800858286016105e1565b9150509250929050565b60008251815b8181101561082a5760208186018101518583015201610810565b818111156108385782828501525b509190910192915050565b6020808252601d908201527f5472616e736665723a206e6f7420616c6c6f776564206163636f756e74000000604082015260600190565b604051601f8201601f1916810167ffffffffffffffff811182821017156108a3576108a36108f6565b604052919050565b600067ffffffffffffffff8211156108c5576108c56108f6565b5060051b60200190565b60006000198214156108ef57634e487b7160e01b81526011600452602481fd5b5060010190565b634e487b7160e01b600052604160045260246000fd5b6001600160a01b038116811461092157600080fd5b5056fea264697066735822122072fabd11e755a2275d676dd7a90280e563091d433c6a0cc064e98c16968df00c64736f6c63430008040033",
  "immutableReferences": {},
  "source": "// SPDX-License-Identifier: MIT\r\npragma solidity ^0.8.0;\r\n\r\nimport \"@openzeppelin/contracts/token/ERC20/IERC20.sol\";\r\nimport \"./IBatch.sol\";\r\n/** \r\n  *@title Batch\r\n  *@author Wanggyu, Suh\r\n  *@notice Batch transfer contract\r\n      1. Send ethereum multiple times with same amount.\r\n      2. Send erc20 multiple times with different amount.\r\n        - (1) Before call batch, send token to this contract.\r\n        - (2) call batch function.\r\n      3. Send ethereum multiple times with different amount.\r\n */\r\ncontract Batch is IBatch {\r\n    mapping (string => IERC20) private tokens;\r\n    mapping (address => bool) private administrators;\r\n    bool private addable;\r\n\r\n    modifier onlyAdmin {\r\n        require(administrators[msg.sender] == true, \"Transfer: not allowed account\");\r\n        _;\r\n    }\r\n\r\n    modifier modeAddable {\r\n        require(addable, \"Transfer: not allowed to add administrator\");\r\n        _;\r\n    }\r\n    \r\n    constructor(address admin) {\r\n        administrators[admin] = true;\r\n        addable = true;\r\n    }\r\n    \r\n    function batch(address[] memory recipient, string[] memory token, uint256[] memory amount) external override onlyAdmin {\r\n        require(recipient.length == token.length && recipient.length == amount.length, \"Transfer: Invalid input\");\r\n        for(uint i = 0; i < recipient.length; i++) {\r\n            tokens[token[i]].transfer(recipient[i], amount[i]);\r\n        }\r\n    }\r\n    \r\n    function addToken(string memory name, IERC20 token) external override onlyAdmin {\r\n        tokens[name] = token;\r\n    }\r\n\r\n\r\n    function withdraw(uint256 amount, string memory token) public onlyAdmin {\r\n        tokens[token].transfer(msg.sender, amount);\r\n    }\r\n\r\n    /**\r\n        @dev add a administrator\r\n    */\r\n    function addAdmin(address newAdmin) public onlyAdmin modeAddable {\r\n        administrators[newAdmin] = true;\r\n    }\r\n\r\n    /**\r\n        @dev Once call this function, can not add administrator forever\r\n    */\r\n    function blockAddable() public onlyAdmin {\r\n        addable = false;\r\n    }\r\n}",
  "sourcePath": "C:\\Users\\tjdhk\\Desktop\\atomic\\contracts\\batch\\Batch.sol",
  "compiler": {
    "name": "solc",
    "version": "0.8.4+commit.c7e474f2.Emscripten.clang"
  },
  "schemaVersion": "3.4.1",
  "updatedAt": "2021-06-07T07:03:14.408Z",
  "networkType": "ethereum",
  "devdoc": {
    "author": "Wanggyu, Suh",
    "kind": "dev",
    "methods": {
      "addAdmin(address)": {
        "details": "add a administrator"
      },
      "blockAddable()": {
        "details": "Once call this function, can not add administrator forever"
      }
    },
    "title": "Batch",
    "version": 1
  },
  "userdoc": {
    "kind": "user",
    "methods": {},
    "notice": "Batch transfer contract 1. Send ethereum multiple times with same amount. 2. Send erc20 multiple times with different amount. - (1) Before call batch, send token to this contract. - (2) call batch function. 3. Send ethereum multiple times with different amount.",
    "version": 1
  }
}