{
  "contractName": "Batch",
  "abi": [
    {
      "inputs": [],
      "stateMutability": "nonpayable",
      "type": "constructor"
    },
    {
      "inputs": [
        {
          "internalType": "address[]",
          "name": "recipient",
          "type": "address[]"
        },
        {
          "internalType": "uint256",
          "name": "amount",
          "type": "uint256"
        }
      ],
      "name": "transfer",
      "outputs": [],
      "stateMutability": "payable",
      "type": "function",
      "payable": true
    },
    {
      "inputs": [
        {
          "internalType": "address[]",
          "name": "recipient",
          "type": "address[]"
        },
        {
          "internalType": "uint256[]",
          "name": "amount",
          "type": "uint256[]"
        }
      ],
      "name": "transferEthWithDifferentValue",
      "outputs": [],
      "stateMutability": "payable",
      "type": "function",
      "payable": true
    },
    {
      "inputs": [
        {
          "internalType": "address[]",
          "name": "recipient",
          "type": "address[]"
        },
        {
          "internalType": "string[]",
          "name": "token",
          "type": "string[]"
        },
        {
          "internalType": "uint256[]",
          "name": "amount",
          "type": "uint256[]"
        }
      ],
      "name": "batch",
      "outputs": [],
      "stateMutability": "nonpayable",
      "type": "function"
    },
    {
      "inputs": [
        {
          "internalType": "string",
          "name": "name",
          "type": "string"
        },
        {
          "internalType": "contract IERC20",
          "name": "token",
          "type": "address"
        }
      ],
      "name": "addToken",
      "outputs": [],
      "stateMutability": "nonpayable",
      "type": "function"
    },
    {
      "inputs": [
        {
          "internalType": "uint256",
          "name": "amount",
          "type": "uint256"
        },
        {
          "internalType": "string",
          "name": "token",
          "type": "string"
        }
      ],
      "name": "withdraw",
      "outputs": [],
      "stateMutability": "nonpayable",
      "type": "function"
    },
    {
      "inputs": [
        {
          "internalType": "address",
          "name": "newAdmin",
          "type": "address"
        }
      ],
      "name": "addAdmin",
      "outputs": [],
      "stateMutability": "nonpayable",
      "type": "function"
    },
    {
      "inputs": [],
      "name": "blockAddable",
      "outputs": [],
      "stateMutability": "nonpayable",
      "type": "function"
    }
  ],
  "bytecode": "0x608060405234801561001057600080fd5b50336000908152600160208190526040909120805460ff199081168317909155600280549091169091179055610cf58061004b6000396000f3fe6080604052600436106100705760003560e01c8063422c36761161004e578063422c3676146100b257806370480275146100d2578063b0b22c2c146100f2578063dc048cf21461011257600080fd5b806305135449146100755780631939c1ff1461008c57806331481a9d1461009f575b600080fd5b34801561008157600080fd5b5061008a610132565b005b61008a61009a366004610a76565b61017c565b61008a6100ad366004610a15565b610254565b3480156100be57600080fd5b5061008a6100cd366004610920565b6103d2565b3480156100de57600080fd5b5061008a6100ed3660046108fd565b6105b2565b3480156100fe57600080fd5b5061008a61010d366004610ad9565b610673565b34801561011e57600080fd5b5061008a61012d366004610b29565b6106ec565b3360009081526001602081905260409091205460ff161515146101705760405162461bcd60e51b815260040161016790610b9d565b60405180910390fd5b6002805460ff19169055565b3482518261018a9190610c41565b146101d05760405162461bcd60e51b81526020600482015260166024820152752a3930b739b332b91d1020b6b7bab73a1032b93937b960511b6044820152606401610167565b60005b825181101561024f578281815181106101fc57634e487b7160e01b600052603260045260246000fd5b60200260200101516001600160a01b03166108fc839081150290604051600060405180830381858888f1935050505015801561023c573d6000803e3d6000fd5b508061024781610c60565b9150506101d3565b505050565b3360009081526001602081905260409091205460ff161515146102895760405162461bcd60e51b815260040161016790610b9d565b6000805b82518110156102dd578281815181106102b657634e487b7160e01b600052603260045260246000fd5b6020026020010151826102c99190610c29565b9150806102d581610c60565b91505061028d565b503481146103265760405162461bcd60e51b81526020600482015260166024820152752a3930b739b332b91d1020b6b7bab73a1032b93937b960511b6044820152606401610167565b60005b83518110156103cc5783818151811061035257634e487b7160e01b600052603260045260246000fd5b60200260200101516001600160a01b03166108fc84838151811061038657634e487b7160e01b600052603260045260246000fd5b60200260200101519081150290604051600060405180830381858888f193505050501580156103b9573d6000803e3d6000fd5b50806103c481610c60565b915050610329565b50505050565b3360009081526001602081905260409091205460ff161515146104075760405162461bcd60e51b815260040161016790610b9d565b81518351148015610419575080518351145b6104655760405162461bcd60e51b815260206004820152601760248201527f5472616e736665723a20496e76616c696420696e7075740000000000000000006044820152606401610167565b60005b83518110156103cc57600083828151811061049357634e487b7160e01b600052603260045260246000fd5b60200260200101516040516104a89190610b64565b9081526040519081900360200190205484516001600160a01b039091169063a9059cbb908690849081106104ec57634e487b7160e01b600052603260045260246000fd5b602002602001015184848151811061051457634e487b7160e01b600052603260045260246000fd5b60200260200101516040518363ffffffff1660e01b815260040161054d9291906001600160a01b03929092168252602082015260400190565b602060405180830381600087803b15801561056757600080fd5b505af115801561057b573d6000803e3d6000fd5b505050506040513d601f19601f8201168201806040525081019061059f9190610ab9565b50806105aa81610c60565b915050610468565b3360009081526001602081905260409091205460ff161515146105e75760405162461bcd60e51b815260040161016790610b9d565b60025460ff1661064c5760405162461bcd60e51b815260206004820152602a60248201527f5472616e736665723a206e6f7420616c6c6f77656420746f206164642061646d60448201526934b734b9ba3930ba37b960b11b6064820152608401610167565b6001600160a01b03166000908152600160208190526040909120805460ff19169091179055565b3360009081526001602081905260409091205460ff161515146106a85760405162461bcd60e51b815260040161016790610b9d565b806000836040516106b99190610b64565b90815260405190819003602001902080546001600160a01b03929092166001600160a01b03199092169190911790555050565b3360009081526001602081905260409091205460ff161515146107215760405162461bcd60e51b815260040161016790610b9d565b6000816040516107319190610b64565b9081526040519081900360200181205463a9059cbb60e01b8252336004830152602482018490526001600160a01b03169063a9059cbb90604401602060405180830381600087803b15801561078557600080fd5b505af1158015610799573d6000803e3d6000fd5b505050506040513d601f19601f8201168201806040525081019061024f9190610ab9565b600082601f8301126107cd578081fd5b813560206107e26107dd83610c05565b610bd4565b80838252828201915082860187848660051b8901011115610801578586fd5b855b8581101561082857813561081681610ca7565b84529284019290840190600101610803565b5090979650505050505050565b600082601f830112610845578081fd5b813560206108556107dd83610c05565b80838252828201915082860187848660051b8901011115610874578586fd5b855b8581101561082857813584529284019290840190600101610876565b600082601f8301126108a2578081fd5b813567ffffffffffffffff8111156108bc576108bc610c91565b6108cf601f8201601f1916602001610bd4565b8181528460208386010111156108e3578283fd5b816020850160208301379081016020019190915292915050565b60006020828403121561090e578081fd5b813561091981610ca7565b9392505050565b600080600060608486031215610934578182fd5b833567ffffffffffffffff8082111561094b578384fd5b610957878388016107bd565b945060209150818601358181111561096d578485fd5b8601601f8101881361097d578485fd5b803561098b6107dd82610c05565b8082825285820191508584018b878560051b87010111156109aa578889fd5b885b848110156109e3578135878111156109c2578a8bfd5b6109d08e8a838a0101610892565b85525092870192908701906001016109ac565b509097505050506040870135925050808211156109fe578283fd5b50610a0b86828701610835565b9150509250925092565b60008060408385031215610a27578182fd5b823567ffffffffffffffff80821115610a3e578384fd5b610a4a868387016107bd565b93506020850135915080821115610a5f578283fd5b50610a6c85828601610835565b9150509250929050565b60008060408385031215610a88578182fd5b823567ffffffffffffffff811115610a9e578283fd5b610aaa858286016107bd565b95602094909401359450505050565b600060208284031215610aca578081fd5b81518015158114610919578182fd5b60008060408385031215610aeb578182fd5b823567ffffffffffffffff811115610b01578283fd5b610b0d85828601610892565b9250506020830135610b1e81610ca7565b809150509250929050565b60008060408385031215610b3b578182fd5b82359150602083013567ffffffffffffffff811115610b58578182fd5b610a6c85828601610892565b60008251815b81811015610b845760208186018101518583015201610b6a565b81811115610b925782828501525b509190910192915050565b6020808252601d908201527f5472616e736665723a206e6f7420616c6c6f776564206163636f756e74000000604082015260600190565b604051601f8201601f1916810167ffffffffffffffff81118282101715610bfd57610bfd610c91565b604052919050565b600067ffffffffffffffff821115610c1f57610c1f610c91565b5060051b60200190565b60008219821115610c3c57610c3c610c7b565b500190565b6000816000190483118215151615610c5b57610c5b610c7b565b500290565b6000600019821415610c7457610c74610c7b565b5060010190565b634e487b7160e01b600052601160045260246000fd5b634e487b7160e01b600052604160045260246000fd5b6001600160a01b0381168114610cbc57600080fd5b5056fea2646970667358221220126945290da0468f9b76b38a623ec17e7dfa577f576e523140baccb9f6d937c864736f6c63430008040033",
  "immutableReferences": {},
  "source": "pragma solidity ^0.8.0;\r\n\r\nimport \"@openzeppelin/contracts/token/ERC20/IERC20.sol\";\r\nimport \"./IBatch.sol\";\r\n/** \r\n  *@title Batch\r\n  *@author Wanggyu, Suh\r\n  *@notice Batch transfer contract\r\n      1. Send ethereum multiple times with same amount.\r\n      2. Send erc20 multiple times with different amount.\r\n        - (1) Before call batch, send token to this contract.\r\n        - (2) call batch function.\r\n      3. Send ethereum multiple times with different amount.\r\n */\r\ncontract Batch is IBatch {\r\n    mapping (string => IERC20) private tokens;\r\n    mapping (address => bool) private administrators;\r\n    bool private addable;\r\n\r\n    modifier onlyAdmin {\r\n        require(administrators[msg.sender] == true, \"Transfer: not allowed account\");\r\n        _;\r\n    }\r\n\r\n    modifier modeAddable {\r\n        require(addable, \"Transfer: not allowed to add administrator\");\r\n        _;\r\n    }\r\n    \r\n    constructor() {\r\n        administrators[msg.sender] = true;\r\n        addable = true;\r\n    }\r\n    \r\n    function transfer(address[] memory recipient, uint256 amount) public payable {\r\n        require(amount * recipient.length == msg.value, \"Transfer: Amount error\");\r\n        for(uint i = 0; i < recipient.length; i++) {\r\n            payable(recipient[i]).transfer(amount);\r\n        }\r\n    }\r\n\r\n    function transferEthWithDifferentValue(address[] memory recipient, uint256[] memory amount) public payable onlyAdmin {\r\n        uint256 sum = 0;\r\n        for(uint i = 0; i < amount.length; i++) { \r\n            sum += amount[i];\r\n        }\r\n        require(sum == msg.value, \"Transfer: Amount error\");\r\n        for(uint i = 0; i < recipient.length; i++) {\r\n            payable(recipient[i]).transfer(amount[i]);\r\n        }\r\n    }\r\n    \r\n    function batch(address[] memory recipient, string[] memory token, uint256[] memory amount) public onlyAdmin {\r\n        require(recipient.length == token.length && recipient.length == amount.length, \"Transfer: Invalid input\");\r\n        for(uint i = 0; i < recipient.length; i++) {\r\n            tokens[token[i]].transfer(recipient[i], amount[i]);\r\n        }\r\n    }\r\n    \r\n    function addToken(string memory name, IERC20 token) public onlyAdmin {\r\n        tokens[name] = token;\r\n    }\r\n\r\n\r\n    function withdraw(uint256 amount, string memory token) public onlyAdmin {\r\n        tokens[token].transfer(msg.sender, amount);\r\n    }\r\n\r\n    /**\r\n        @dev add a administrator\r\n    */\r\n    function addAdmin(address newAdmin) public onlyAdmin modeAddable {\r\n        administrators[newAdmin] = true;\r\n    }\r\n\r\n    /**\r\n        @dev Once call this function, can not add administrator forever\r\n    */\r\n    function blockAddable() public onlyAdmin {\r\n        addable = false;\r\n    }\r\n}",
  "sourcePath": "C:/Users/tjdhk/Desktop/atomic/contracts/batch/Batch.sol",
  "compiler": {
    "name": "solc",
    "version": "0.8.4+commit.c7e474f2.Emscripten.clang"
  },
  "schemaVersion": "3.4.1",
  "updatedAt": "2021-05-11T04:29:37.620Z",
  "networkType": "ethereum",
  "devdoc": {
    "author": "Wanggyu, Suh",
    "kind": "dev",
    "methods": {
      "addAdmin(address)": {
        "details": "add a administrator"
      },
      "blockAddable()": {
        "details": "Once call this function, can not add administrator forever"
      }
    },
    "title": "Batch",
    "version": 1
  },
  "userdoc": {
    "kind": "user",
    "methods": {},
    "notice": "Batch transfer contract 1. Send ethereum multiple times with same amount. 2. Send erc20 multiple times with different amount. - (1) Before call batch, send token to this contract. - (2) call batch function. 3. Send ethereum multiple times with different amount.",
    "version": 1
  }
}