{
  "contractName": "DefaultBatch",
  "abi": [
    {
      "inputs": [
        {
          "internalType": "address[]",
          "name": "recipient",
          "type": "address[]"
        },
        {
          "internalType": "uint256",
          "name": "amount",
          "type": "uint256"
        }
      ],
      "name": "transfer",
      "outputs": [],
      "stateMutability": "payable",
      "type": "function"
    },
    {
      "inputs": [
        {
          "internalType": "address[]",
          "name": "recipient",
          "type": "address[]"
        },
        {
          "internalType": "uint256[]",
          "name": "amount",
          "type": "uint256[]"
        }
      ],
      "name": "transferEthWithDifferentValue",
      "outputs": [],
      "stateMutability": "payable",
      "type": "function"
    }
  ],
  "bytecode": "0x608060405234801561001057600080fd5b50610507806100206000396000f3fe6080604052600436106100295760003560e01c80631939c1ff1461002e57806331481a9d14610043575b600080fd5b61004161003c3660046103bb565b610056565b005b6100416100513660046102ff565b610133565b34825182610064919061046b565b146100af5760405162461bcd60e51b81526020600482015260166024820152752a3930b739b332b91d1020b6b7bab73a1032b93937b960511b60448201526064015b60405180910390fd5b60005b825181101561012e578281815181106100db57634e487b7160e01b600052603260045260246000fd5b60200260200101516001600160a01b03166108fc839081150290604051600060405180830381858888f1935050505015801561011b573d6000803e3d6000fd5b50806101268161048a565b9150506100b2565b505050565b6000805b82518110156101875782818151811061016057634e487b7160e01b600052603260045260246000fd5b6020026020010151826101739190610453565b91508061017f8161048a565b915050610137565b503481146101d05760405162461bcd60e51b81526020600482015260166024820152752a3930b739b332b91d1020b6b7bab73a1032b93937b960511b60448201526064016100a6565b60005b8351811015610276578381815181106101fc57634e487b7160e01b600052603260045260246000fd5b60200260200101516001600160a01b03166108fc84838151811061023057634e487b7160e01b600052603260045260246000fd5b60200260200101519081150290604051600060405180830381858888f19350505050158015610263573d6000803e3d6000fd5b508061026e8161048a565b9150506101d3565b50505050565b600082601f83011261028c578081fd5b813560206102a161029c8361042f565b6103fe565b80838252828201915082860187848660051b89010111156102c0578586fd5b855b858110156102f25781356001600160a01b03811681146102e0578788fd5b845292840192908401906001016102c2565b5090979650505050505050565b60008060408385031215610311578182fd5b823567ffffffffffffffff80821115610328578384fd5b6103348683870161027c565b935060209150818501358181111561034a578384fd5b85019050601f8101861361035c578283fd5b803561036a61029c8261042f565b80828252848201915084840189868560051b8701011115610389578687fd5b8694505b838510156103ab57803583526001949094019391850191850161038d565b5080955050505050509250929050565b600080604083850312156103cd578182fd5b823567ffffffffffffffff8111156103e3578283fd5b6103ef8582860161027c565b95602094909401359450505050565b604051601f8201601f1916810167ffffffffffffffff81118282101715610427576104276104bb565b604052919050565b600067ffffffffffffffff821115610449576104496104bb565b5060051b60200190565b60008219821115610466576104666104a5565b500190565b6000816000190483118215151615610485576104856104a5565b500290565b600060001982141561049e5761049e6104a5565b5060010190565b634e487b7160e01b600052601160045260246000fd5b634e487b7160e01b600052604160045260246000fdfea2646970667358221220f3e91caad2ae253d5b30994f0a435267319b3fd9991dde19a7df8eacf602bc1f64736f6c63430008040033",
  "immutableReferences": {},
  "source": "// SPDX-License-Identifier: MIT\r\npragma solidity ^0.8.0;\r\n\r\nimport \"./IDefaultBatch.sol\";\r\n\r\n/** \r\n  *@title DefaultBatch \r\n  *@author Wanggyu, Suh\r\n*/\r\ncontract DefaultBatch is IDefaultBatch {\r\n\r\n    function transfer(address[] memory recipient, uint256 amount) external override payable {\r\n        require(amount * recipient.length == msg.value, \"Transfer: Amount error\");\r\n        for(uint i = 0; i < recipient.length; i++) {\r\n            payable(recipient[i]).transfer(amount);\r\n        }\r\n    }\r\n\r\n    function transferEthWithDifferentValue(address[] memory recipient, uint256[] memory amount) external override payable {\r\n        uint256 sum = 0;\r\n        for(uint i = 0; i < amount.length; i++) { \r\n            sum += amount[i];\r\n        }\r\n        require(sum == msg.value, \"Transfer: Amount error\");\r\n        for(uint i = 0; i < recipient.length; i++) {\r\n            payable(recipient[i]).transfer(amount[i]);\r\n        }\r\n    }\r\n}",
  "sourcePath": "C:\\Users\\tjdhk\\Desktop\\atomic\\contracts\\batch\\DefaultBatch.sol",
  "compiler": {
    "name": "solc",
    "version": "0.8.4+commit.c7e474f2.Emscripten.clang"
  },
  "schemaVersion": "3.4.1",
  "updatedAt": "2021-06-07T07:03:06.187Z",
  "devdoc": {
    "author": "Wanggyu, Suh",
    "kind": "dev",
    "methods": {},
    "title": "DefaultBatch ",
    "version": 1
  },
  "userdoc": {
    "kind": "user",
    "methods": {},
    "version": 1
  }
}