{
  "contractName": "Factory",
  "abi": [
    {
      "inputs": [],
      "stateMutability": "nonpayable",
      "type": "constructor"
    },
    {
      "inputs": [],
      "name": "getDefault",
      "outputs": [
        {
          "internalType": "address",
          "name": "",
          "type": "address"
        }
      ],
      "stateMutability": "view",
      "type": "function",
      "constant": true
    },
    {
      "inputs": [
        {
          "internalType": "address",
          "name": "admin",
          "type": "address"
        }
      ],
      "name": "generateBatch",
      "outputs": [],
      "stateMutability": "nonpayable",
      "type": "function"
    },
    {
      "inputs": [
        {
          "internalType": "address",
          "name": "admin",
          "type": "address"
        }
      ],
      "name": "getBatches",
      "outputs": [
        {
          "internalType": "address[]",
          "name": "",
          "type": "address[]"
        }
      ],
      "stateMutability": "view",
      "type": "function",
      "constant": true
    }
  ],
  "bytecode": "0x608060405234801561001057600080fd5b5060405161001d9061005f565b604051809103906000f080158015610039573d6000803e3d6000fd5b50600080546001600160a01b0319166001600160a01b039290921691909117905561006c565b61052780610cd183390190565b610c568061007b6000396000f3fe608060405234801561001057600080fd5b50600436106100415760003560e01c8063130a190814610046578063466858b21461005b578063f8185a131461007b575b600080fd5b6100596100543660046101a7565b61009b565b005b6000546040516001600160a01b0390911681526020015b60405180910390f35b61008e6100893660046101a7565b610124565b60405161007291906101d5565b6001600160a01b03811660009081526001602052604090819020905182906100c29061019a565b6001600160a01b039091168152602001604051809103906000f0801580156100ee573d6000803e3d6000fd5b5081546001810183556000928352602090922090910180546001600160a01b0319166001600160a01b0390921691909117905550565b6001600160a01b03811660009081526001602090815260409182902080548351818402810184019094528084526060939283018282801561018e57602002820191906000526020600020905b81546001600160a01b03168152600190910190602001808311610170575b50505050509050919050565b6109fe8061022383390190565b6000602082840312156101b8578081fd5b81356001600160a01b03811681146101ce578182fd5b9392505050565b6020808252825182820181905260009190848201906040850190845b818110156102165783516001600160a01b0316835292840192918401916001016101f1565b5090969550505050505056fe608060405234801561001057600080fd5b506040516109fe3803806109fe83398101604081905261002f91610067565b6001600160a01b03166000908152600160208190526040909120805460ff199081168317909155600280549091169091179055610095565b600060208284031215610078578081fd5b81516001600160a01b038116811461008e578182fd5b9392505050565b61095a806100a46000396000f3fe608060405234801561001057600080fd5b50600436106100575760003560e01c8063051354491461005c578063422c3676146100665780637048027514610079578063b0b22c2c1461008c578063dc048cf21461009f575b600080fd5b6100646100b2565b005b61006461007436600461066f565b6100fc565b61006461008736600461064c565b6102e2565b61006461009a366004610775565b6103a3565b6100646100ad3660046107c5565b61041c565b3360009081526001602081905260409091205460ff161515146100f05760405162461bcd60e51b81526004016100e790610843565b60405180910390fd5b6002805460ff19169055565b3360009081526001602081905260409091205460ff161515146101315760405162461bcd60e51b81526004016100e790610843565b81518351148015610143575080518351145b61018f5760405162461bcd60e51b815260206004820152601760248201527f5472616e736665723a20496e76616c696420696e70757400000000000000000060448201526064016100e7565b60005b83518110156102dc5760008382815181106101bd57634e487b7160e01b600052603260045260246000fd5b60200260200101516040516101d2919061080a565b9081526040519081900360200190205484516001600160a01b039091169063a9059cbb9086908490811061021657634e487b7160e01b600052603260045260246000fd5b602002602001015184848151811061023e57634e487b7160e01b600052603260045260246000fd5b60200260200101516040518363ffffffff1660e01b81526004016102779291906001600160a01b03929092168252602082015260400190565b602060405180830381600087803b15801561029157600080fd5b505af11580156102a5573d6000803e3d6000fd5b505050506040513d601f19601f820116820180604052508101906102c99190610755565b50806102d4816108cf565b915050610192565b50505050565b3360009081526001602081905260409091205460ff161515146103175760405162461bcd60e51b81526004016100e790610843565b60025460ff1661037c5760405162461bcd60e51b815260206004820152602a60248201527f5472616e736665723a206e6f7420616c6c6f77656420746f206164642061646d60448201526934b734b9ba3930ba37b960b11b60648201526084016100e7565b6001600160a01b03166000908152600160208190526040909120805460ff19169091179055565b3360009081526001602081905260409091205460ff161515146103d85760405162461bcd60e51b81526004016100e790610843565b806000836040516103e9919061080a565b90815260405190819003602001902080546001600160a01b03929092166001600160a01b03199092169190911790555050565b3360009081526001602081905260409091205460ff161515146104515760405162461bcd60e51b81526004016100e790610843565b600081604051610461919061080a565b9081526040519081900360200181205463a9059cbb60e01b8252336004830152602482018490526001600160a01b03169063a9059cbb90604401602060405180830381600087803b1580156104b557600080fd5b505af11580156104c9573d6000803e3d6000fd5b505050506040513d601f19601f820116820180604052508101906104ed9190610755565b505050565b600082601f830112610502578081fd5b81356020610517610512836108ab565b61087a565b80838252828201915082860187848660051b8901011115610536578586fd5b855b8581101561057757813567ffffffffffffffff811115610556578788fd5b6105648a87838c01016105e1565b8552509284019290840190600101610538565b5090979650505050505050565b600082601f830112610594578081fd5b813560206105a4610512836108ab565b80838252828201915082860187848660051b89010111156105c3578586fd5b855b85811015610577578135845292840192908401906001016105c5565b600082601f8301126105f1578081fd5b813567ffffffffffffffff81111561060b5761060b6108f6565b61061e601f8201601f191660200161087a565b818152846020838601011115610632578283fd5b816020850160208301379081016020019190915292915050565b60006020828403121561065d578081fd5b81356106688161090c565b9392505050565b600080600060608486031215610683578182fd5b833567ffffffffffffffff8082111561069a578384fd5b818601915086601f8301126106ad578384fd5b813560206106bd610512836108ab565b8083825282820191508286018b848660051b89010111156106dc578889fd5b8896505b848710156107075780356106f38161090c565b8352600196909601959183019183016106e0565b509750508701359250508082111561071d578384fd5b610729878388016104f2565b9350604086013591508082111561073e578283fd5b5061074b86828701610584565b9150509250925092565b600060208284031215610766578081fd5b81518015158114610668578182fd5b60008060408385031215610787578182fd5b823567ffffffffffffffff81111561079d578283fd5b6107a9858286016105e1565b92505060208301356107ba8161090c565b809150509250929050565b600080604083850312156107d7578182fd5b82359150602083013567ffffffffffffffff8111156107f4578182fd5b610800858286016105e1565b9150509250929050565b60008251815b8181101561082a5760208186018101518583015201610810565b818111156108385782828501525b509190910192915050565b6020808252601d908201527f5472616e736665723a206e6f7420616c6c6f776564206163636f756e74000000604082015260600190565b604051601f8201601f1916810167ffffffffffffffff811182821017156108a3576108a36108f6565b604052919050565b600067ffffffffffffffff8211156108c5576108c56108f6565b5060051b60200190565b60006000198214156108ef57634e487b7160e01b81526011600452602481fd5b5060010190565b634e487b7160e01b600052604160045260246000fd5b6001600160a01b038116811461092157600080fd5b5056fea264697066735822122072fabd11e755a2275d676dd7a90280e563091d433c6a0cc064e98c16968df00c64736f6c63430008040033a2646970667358221220a9fecacc769fd66296a536a50fb033e5d519756e1ff1cbd4cb4c423ea604ae1064736f6c63430008040033608060405234801561001057600080fd5b50610507806100206000396000f3fe6080604052600436106100295760003560e01c80631939c1ff1461002e57806331481a9d14610043575b600080fd5b61004161003c3660046103bb565b610056565b005b6100416100513660046102ff565b610133565b34825182610064919061046b565b146100af5760405162461bcd60e51b81526020600482015260166024820152752a3930b739b332b91d1020b6b7bab73a1032b93937b960511b60448201526064015b60405180910390fd5b60005b825181101561012e578281815181106100db57634e487b7160e01b600052603260045260246000fd5b60200260200101516001600160a01b03166108fc839081150290604051600060405180830381858888f1935050505015801561011b573d6000803e3d6000fd5b50806101268161048a565b9150506100b2565b505050565b6000805b82518110156101875782818151811061016057634e487b7160e01b600052603260045260246000fd5b6020026020010151826101739190610453565b91508061017f8161048a565b915050610137565b503481146101d05760405162461bcd60e51b81526020600482015260166024820152752a3930b739b332b91d1020b6b7bab73a1032b93937b960511b60448201526064016100a6565b60005b8351811015610276578381815181106101fc57634e487b7160e01b600052603260045260246000fd5b60200260200101516001600160a01b03166108fc84838151811061023057634e487b7160e01b600052603260045260246000fd5b60200260200101519081150290604051600060405180830381858888f19350505050158015610263573d6000803e3d6000fd5b508061026e8161048a565b9150506101d3565b50505050565b600082601f83011261028c578081fd5b813560206102a161029c8361042f565b6103fe565b80838252828201915082860187848660051b89010111156102c0578586fd5b855b858110156102f25781356001600160a01b03811681146102e0578788fd5b845292840192908401906001016102c2565b5090979650505050505050565b60008060408385031215610311578182fd5b823567ffffffffffffffff80821115610328578384fd5b6103348683870161027c565b935060209150818501358181111561034a578384fd5b85019050601f8101861361035c578283fd5b803561036a61029c8261042f565b80828252848201915084840189868560051b8701011115610389578687fd5b8694505b838510156103ab57803583526001949094019391850191850161038d565b5080955050505050509250929050565b600080604083850312156103cd578182fd5b823567ffffffffffffffff8111156103e3578283fd5b6103ef8582860161027c565b95602094909401359450505050565b604051601f8201601f1916810167ffffffffffffffff81118282101715610427576104276104bb565b604052919050565b600067ffffffffffffffff821115610449576104496104bb565b5060051b60200190565b60008219821115610466576104666104a5565b500190565b6000816000190483118215151615610485576104856104a5565b500290565b600060001982141561049e5761049e6104a5565b5060010190565b634e487b7160e01b600052601160045260246000fd5b634e487b7160e01b600052604160045260246000fdfea2646970667358221220f3e91caad2ae253d5b30994f0a435267319b3fd9991dde19a7df8eacf602bc1f64736f6c63430008040033",
  "immutableReferences": {},
  "source": "pragma solidity ^0.8.0;\r\n\r\nimport \"./batch/IBatch.sol\";\r\nimport \"./batch/IDefaultBatch.sol\";\r\nimport \"./batch/DefaultBatch.sol\";\r\nimport \"./batch/Batch.sol\";\r\n\r\ncontract Factory {\r\n    IDefaultBatch defaultBatch; \r\n\r\n    mapping(address=>address[]) batches;\r\n\r\n    constructor () {\r\n        defaultBatch = new DefaultBatch();\r\n    }\r\n\r\n    function getDefault() public view returns (address) {\r\n        return address(defaultBatch);\r\n    }\r\n\r\n    function generateBatch(address admin) public {\r\n        batches[admin].push(address(new Batch(admin)));\r\n    }\r\n\r\n    function getBatches(address admin) public view returns (address[] memory) {\r\n        return batches[admin];\r\n    }\r\n\r\n}",
  "sourcePath": "C:/Users/tjdhk/Desktop/atomic/contracts/Factory.sol",
  "compiler": {
    "name": "solc",
    "version": "0.8.4+commit.c7e474f2.Emscripten.clang"
  },
  "schemaVersion": "3.4.1",
  "updatedAt": "2021-06-07T07:03:14.402Z",
  "networkType": "ethereum",
  "devdoc": {
    "kind": "dev",
    "methods": {},
    "version": 1
  },
  "userdoc": {
    "kind": "user",
    "methods": {},
    "version": 1
  }
}